{
  "_format": "hh-sol-artifact-1",
  "contractName": "EmployeeManagement",
  "sourceName": "contracts/EmployeeManagement.sol",
  "abi": [
    {
      "inputs": [],
      "stateMutability": "nonpayable",
      "type": "constructor"
    },
    {
      "anonymous": false,
      "inputs": [
        {
          "indexed": true,
          "internalType": "address",
          "name": "walletAddress",
          "type": "address"
        }
      ],
      "name": "Blacklisted",
      "type": "event"
    },
    {
      "anonymous": false,
      "inputs": [
        {
          "indexed": true,
          "internalType": "uint256",
          "name": "employeeId",
          "type": "uint256"
        },
        {
          "indexed": false,
          "internalType": "string",
          "name": "name",
          "type": "string"
        },
        {
          "indexed": false,
          "internalType": "address",
          "name": "walletAddress",
          "type": "address"
        },
        {
          "indexed": false,
          "internalType": "bool",
          "name": "status",
          "type": "bool"
        }
      ],
      "name": "EmployeeAdded",
      "type": "event"
    },
    {
      "inputs": [
        {
          "internalType": "string",
          "name": "_name",
          "type": "string"
        },
        {
          "internalType": "address",
          "name": "_walletAddress",
          "type": "address"
        }
      ],
      "name": "addEmployee",
      "outputs": [],
      "stateMutability": "nonpayable",
      "type": "function"
    },
    {
      "inputs": [
        {
          "internalType": "address",
          "name": "walletAddress",
          "type": "address"
        }
      ],
      "name": "addToBlacklist",
      "outputs": [],
      "stateMutability": "nonpayable",
      "type": "function"
    },
    {
      "inputs": [],
      "name": "getAllEmployees",
      "outputs": [
        {
          "components": [
            {
              "internalType": "string",
              "name": "name",
              "type": "string"
            },
            {
              "internalType": "address",
              "name": "walletAddress",
              "type": "address"
            },
            {
              "internalType": "bool",
              "name": "status",
              "type": "bool"
            }
          ],
          "internalType": "struct EmployeeManagement.Employee[]",
          "name": "",
          "type": "tuple[]"
        }
      ],
      "stateMutability": "view",
      "type": "function"
    },
    {
      "inputs": [
        {
          "internalType": "uint256",
          "name": "employeeId",
          "type": "uint256"
        }
      ],
      "name": "getEmployee",
      "outputs": [
        {
          "components": [
            {
              "internalType": "string",
              "name": "name",
              "type": "string"
            },
            {
              "internalType": "address",
              "name": "walletAddress",
              "type": "address"
            },
            {
              "internalType": "bool",
              "name": "status",
              "type": "bool"
            }
          ],
          "internalType": "struct EmployeeManagement.Employee",
          "name": "",
          "type": "tuple"
        }
      ],
      "stateMutability": "view",
      "type": "function"
    },
    {
      "inputs": [
        {
          "internalType": "address",
          "name": "walletAddress",
          "type": "address"
        }
      ],
      "name": "isBlacklisted",
      "outputs": [
        {
          "internalType": "bool",
          "name": "",
          "type": "bool"
        }
      ],
      "stateMutability": "view",
      "type": "function"
    },
    {
      "inputs": [
        {
          "internalType": "address",
          "name": "walletAddress",
          "type": "address"
        }
      ],
      "name": "removeFromBlacklist",
      "outputs": [],
      "stateMutability": "nonpayable",
      "type": "function"
    }
  ],
  "bytecode": "0x60806040523480156200001157600080fd5b506200005a6040518060400160405280600d81526020017f4861726448617420546f6b656e0000000000000000000000000000000000000081525060006200006060201b60201c565b620007a1565b600260008273ffffffffffffffffffffffffffffffffffffffff1673ffffffffffffffffffffffffffffffffffffffff16815260200190815260200160002060009054906101000a900460ff1615620000f0576040517f08c379a0000000000000000000000000000000000000000000000000000000008152600401620000e7906200027e565b60405180910390fd5b6000600154905060405180606001604052808481526020018373ffffffffffffffffffffffffffffffffffffffff1681526020016001151581525060008083815260200190815260200160002060008201518160000190816200015491906200051a565b5060208201518160010160006101000a81548173ffffffffffffffffffffffffffffffffffffffff021916908373ffffffffffffffffffffffffffffffffffffffff16021790555060408201518160010160146101000a81548160ff02191690831515021790555090505060016000815480929190620001d49062000630565b9190505550807f93f25accd29b75d9da79a0b50b6c52e7781b361c9bbb4da7b2a9650f3c55a66c8484600160405162000210939291906200075d565b60405180910390a2505050565b600082825260208201905092915050565b7f57616c6c6574206164647265737320697320626c61636b6c6973746564000000600082015250565b600062000266601d836200021d565b915062000273826200022e565b602082019050919050565b60006020820190508181036000830152620002998162000257565b9050919050565b600081519050919050565b7f4e487b7100000000000000000000000000000000000000000000000000000000600052604160045260246000fd5b7f4e487b7100000000000000000000000000000000000000000000000000000000600052602260045260246000fd5b600060028204905060018216806200032257607f821691505b602082108103620003385762000337620002da565b5b50919050565b60008190508160005260206000209050919050565b60006020601f8301049050919050565b600082821b905092915050565b600060088302620003a27fffffffffffffffffffffffffffffffffffffffffffffffffffffffffffffffff8262000363565b620003ae868362000363565b95508019841693508086168417925050509392505050565b6000819050919050565b6000819050919050565b6000620003fb620003f5620003ef84620003c6565b620003d0565b620003c6565b9050919050565b6000819050919050565b6200041783620003da565b6200042f620004268262000402565b84845462000370565b825550505050565b600090565b6200044662000437565b620004538184846200040c565b505050565b5b818110156200047b576200046f6000826200043c565b60018101905062000459565b5050565b601f821115620004ca5762000494816200033e565b6200049f8462000353565b81016020851015620004af578190505b620004c7620004be8562000353565b83018262000458565b50505b505050565b600082821c905092915050565b6000620004ef60001984600802620004cf565b1980831691505092915050565b60006200050a8383620004dc565b9150826002028217905092915050565b6200052582620002a0565b67ffffffffffffffff811115620005415762000540620002ab565b5b6200054d825462000309565b6200055a8282856200047f565b600060209050601f8311600181146200059257600084156200057d578287015190505b620005898582620004fc565b865550620005f9565b601f198416620005a2866200033e565b60005b82811015620005cc57848901518255600182019150602085019450602081019050620005a5565b86831015620005ec5784890151620005e8601f891682620004dc565b8355505b6001600288020188555050505b505050505050565b7f4e487b7100000000000000000000000000000000000000000000000000000000600052601160045260246000fd5b60006200063d82620003c6565b91507fffffffffffffffffffffffffffffffffffffffffffffffffffffffffffffffff820362000672576200067162000601565b5b600182019050919050565b60005b838110156200069d57808201518184015260208101905062000680565b60008484015250505050565b6000601f19601f8301169050919050565b6000620006c782620002a0565b620006d381856200021d565b9350620006e58185602086016200067d565b620006f081620006a9565b840191505092915050565b600073ffffffffffffffffffffffffffffffffffffffff82169050919050565b60006200072882620006fb565b9050919050565b6200073a816200071b565b82525050565b60008115159050919050565b620007578162000740565b82525050565b60006060820190508181036000830152620007798186620006ba565b90506200078a60208301856200072f565b6200079960408301846200074c565b949350505050565b6114fe80620007b16000396000f3fe608060405234801561001057600080fd5b50600436106100625760003560e01c806344337ea114610067578063537df3b6146100835780639f251f801461009f578063bca9a5c5146100bb578063e3366fed146100eb578063fe575a8714610109575b600080fd5b610081600480360381019061007c9190610a06565b610139565b005b61009d60048036038101906100989190610a06565b61026f565b005b6100b960048036038101906100b49190610b79565b610361565b005b6100d560048036038101906100d09190610c0b565b610515565b6040516100e29190610d31565b60405180910390f35b6100f3610688565b6040516101009190610e65565b60405180910390f35b610123600480360381019061011e9190610a06565b61084a565b6040516101309190610e96565b60405180910390f35b600260008273ffffffffffffffffffffffffffffffffffffffff1673ffffffffffffffffffffffffffffffffffffffff16815260200190815260200160002060009054906101000a900460ff16156101c6576040517f08c379a00000000000000000000000000000000000000000000000000000000081526004016101bd90610f34565b60405180910390fd5b6001600260008373ffffffffffffffffffffffffffffffffffffffff1673ffffffffffffffffffffffffffffffffffffffff16815260200190815260200160002060006101000a81548160ff0219169083151502179055506102298160006108a0565b8073ffffffffffffffffffffffffffffffffffffffff167fffa4e6181777692565cf28528fc88fd1516ea86b56da075235fa575af6a4b85560405160405180910390a250565b600260008273ffffffffffffffffffffffffffffffffffffffff1673ffffffffffffffffffffffffffffffffffffffff16815260200190815260200160002060009054906101000a900460ff166102fb576040517f08c379a00000000000000000000000000000000000000000000000000000000081526004016102f290610fc6565b60405180910390fd5b6000600260008373ffffffffffffffffffffffffffffffffffffffff1673ffffffffffffffffffffffffffffffffffffffff16815260200190815260200160002060006101000a81548160ff02191690831515021790555061035e8160016108a0565b50565b600260008273ffffffffffffffffffffffffffffffffffffffff1673ffffffffffffffffffffffffffffffffffffffff16815260200190815260200160002060009054906101000a900460ff16156103ee576040517f08c379a00000000000000000000000000000000000000000000000000000000081526004016103e590611032565b60405180910390fd5b6000600154905060405180606001604052808481526020018373ffffffffffffffffffffffffffffffffffffffff168152602001600115158152506000808381526020019081526020016000206000820151816000019081610450919061125e565b5060208201518160010160006101000a81548173ffffffffffffffffffffffffffffffffffffffff021916908373ffffffffffffffffffffffffffffffffffffffff16021790555060408201518160010160146101000a81548160ff021916908315150217905550905050600160008154809291906104ce9061135f565b9190505550807f93f25accd29b75d9da79a0b50b6c52e7781b361c9bbb4da7b2a9650f3c55a66c84846001604051610508939291906113ef565b60405180910390a2505050565b61051d61095b565b6001548210610561576040517f08c379a000000000000000000000000000000000000000000000000000000000815260040161055890611479565b60405180910390fd5b60008083815260200190815260200160002060405180606001604052908160008201805461058e90611081565b80601f01602080910402602001604051908101604052809291908181526020018280546105ba90611081565b80156106075780601f106105dc57610100808354040283529160200191610607565b820191906000526020600020905b8154815290600101906020018083116105ea57829003601f168201915b505050505081526020016001820160009054906101000a900473ffffffffffffffffffffffffffffffffffffffff1673ffffffffffffffffffffffffffffffffffffffff1673ffffffffffffffffffffffffffffffffffffffff1681526020016001820160149054906101000a900460ff1615151515815250509050919050565b6060600060015467ffffffffffffffff8111156106a8576106a7610a4e565b5b6040519080825280602002602001820160405280156106e157816020015b6106ce61095b565b8152602001906001900390816106c65790505b50905060005b6001548110156108425760008082815260200190815260200160002060405180606001604052908160008201805461071e90611081565b80601f016020809104026020016040519081016040528092919081815260200182805461074a90611081565b80156107975780601f1061076c57610100808354040283529160200191610797565b820191906000526020600020905b81548152906001019060200180831161077a57829003601f168201915b505050505081526020016001820160009054906101000a900473ffffffffffffffffffffffffffffffffffffffff1673ffffffffffffffffffffffffffffffffffffffff1673ffffffffffffffffffffffffffffffffffffffff1681526020016001820160149054906101000a900460ff16151515158152505082828151811061082457610823611499565b5b6020026020010181905250808061083a9061135f565b9150506106e7565b508091505090565b6000600260008373ffffffffffffffffffffffffffffffffffffffff1673ffffffffffffffffffffffffffffffffffffffff16815260200190815260200160002060009054906101000a900460ff169050919050565b60005b600154811015610956578273ffffffffffffffffffffffffffffffffffffffff1660008083815260200190815260200160002060010160009054906101000a900473ffffffffffffffffffffffffffffffffffffffff1673ffffffffffffffffffffffffffffffffffffffff1603610943578160008083815260200190815260200160002060010160146101000a81548160ff0219169083151502179055505b808061094e9061135f565b9150506108a3565b505050565b604051806060016040528060608152602001600073ffffffffffffffffffffffffffffffffffffffff1681526020016000151581525090565b6000604051905090565b600080fd5b600080fd5b600073ffffffffffffffffffffffffffffffffffffffff82169050919050565b60006109d3826109a8565b9050919050565b6109e3816109c8565b81146109ee57600080fd5b50565b600081359050610a00816109da565b92915050565b600060208284031215610a1c57610a1b61099e565b5b6000610a2a848285016109f1565b91505092915050565b600080fd5b600080fd5b6000601f19601f8301169050919050565b7f4e487b7100000000000000000000000000000000000000000000000000000000600052604160045260246000fd5b610a8682610a3d565b810181811067ffffffffffffffff82111715610aa557610aa4610a4e565b5b80604052505050565b6000610ab8610994565b9050610ac48282610a7d565b919050565b600067ffffffffffffffff821115610ae457610ae3610a4e565b5b610aed82610a3d565b9050602081019050919050565b82818337600083830152505050565b6000610b1c610b1784610ac9565b610aae565b905082815260208101848484011115610b3857610b37610a38565b5b610b43848285610afa565b509392505050565b600082601f830112610b6057610b5f610a33565b5b8135610b70848260208601610b09565b91505092915050565b60008060408385031215610b9057610b8f61099e565b5b600083013567ffffffffffffffff811115610bae57610bad6109a3565b5b610bba85828601610b4b565b9250506020610bcb858286016109f1565b9150509250929050565b6000819050919050565b610be881610bd5565b8114610bf357600080fd5b50565b600081359050610c0581610bdf565b92915050565b600060208284031215610c2157610c2061099e565b5b6000610c2f84828501610bf6565b91505092915050565b600081519050919050565b600082825260208201905092915050565b60005b83811015610c72578082015181840152602081019050610c57565b60008484015250505050565b6000610c8982610c38565b610c938185610c43565b9350610ca3818560208601610c54565b610cac81610a3d565b840191505092915050565b610cc0816109c8565b82525050565b60008115159050919050565b610cdb81610cc6565b82525050565b60006060830160008301518482036000860152610cfe8282610c7e565b9150506020830151610d136020860182610cb7565b506040830151610d266040860182610cd2565b508091505092915050565b60006020820190508181036000830152610d4b8184610ce1565b905092915050565b600081519050919050565b600082825260208201905092915050565b6000819050602082019050919050565b60006060830160008301518482036000860152610d9c8282610c7e565b9150506020830151610db16020860182610cb7565b506040830151610dc46040860182610cd2565b508091505092915050565b6000610ddb8383610d7f565b905092915050565b6000602082019050919050565b6000610dfb82610d53565b610e058185610d5e565b935083602082028501610e1785610d6f565b8060005b85811015610e535784840389528151610e348582610dcf565b9450610e3f83610de3565b925060208a01995050600181019050610e1b565b50829750879550505050505092915050565b60006020820190508181036000830152610e7f8184610df0565b905092915050565b610e9081610cc6565b82525050565b6000602082019050610eab6000830184610e87565b92915050565b600082825260208201905092915050565b7f57616c6c6574206164647265737320697320616c726561647920626c61636b6c60008201527f6973746564000000000000000000000000000000000000000000000000000000602082015250565b6000610f1e602583610eb1565b9150610f2982610ec2565b604082019050919050565b60006020820190508181036000830152610f4d81610f11565b9050919050565b7f57616c6c65742061646472657373206973206e6f7420626c61636b6c6973746560008201527f6400000000000000000000000000000000000000000000000000000000000000602082015250565b6000610fb0602183610eb1565b9150610fbb82610f54565b604082019050919050565b60006020820190508181036000830152610fdf81610fa3565b9050919050565b7f57616c6c6574206164647265737320697320626c61636b6c6973746564000000600082015250565b600061101c601d83610eb1565b915061102782610fe6565b602082019050919050565b6000602082019050818103600083015261104b8161100f565b9050919050565b7f4e487b7100000000000000000000000000000000000000000000000000000000600052602260045260246000fd5b6000600282049050600182168061109957607f821691505b6020821081036110ac576110ab611052565b5b50919050565b60008190508160005260206000209050919050565b60006020601f8301049050919050565b600082821b905092915050565b6000600883026111147fffffffffffffffffffffffffffffffffffffffffffffffffffffffffffffffff826110d7565b61111e86836110d7565b95508019841693508086168417925050509392505050565b6000819050919050565b600061115b61115661115184610bd5565b611136565b610bd5565b9050919050565b6000819050919050565b61117583611140565b61118961118182611162565b8484546110e4565b825550505050565b600090565b61119e611191565b6111a981848461116c565b505050565b5b818110156111cd576111c2600082611196565b6001810190506111af565b5050565b601f821115611212576111e3816110b2565b6111ec846110c7565b810160208510156111fb578190505b61120f611207856110c7565b8301826111ae565b50505b505050565b600082821c905092915050565b600061123560001984600802611217565b1980831691505092915050565b600061124e8383611224565b9150826002028217905092915050565b61126782610c38565b67ffffffffffffffff8111156112805761127f610a4e565b5b61128a8254611081565b6112958282856111d1565b600060209050601f8311600181146112c857600084156112b6578287015190505b6112c08582611242565b865550611328565b601f1984166112d6866110b2565b60005b828110156112fe578489015182556001820191506020850194506020810190506112d9565b8683101561131b5784890151611317601f891682611224565b8355505b6001600288020188555050505b505050505050565b7f4e487b7100000000000000000000000000000000000000000000000000000000600052601160045260246000fd5b600061136a82610bd5565b91507fffffffffffffffffffffffffffffffffffffffffffffffffffffffffffffffff820361139c5761139b611330565b5b600182019050919050565b60006113b282610c38565b6113bc8185610eb1565b93506113cc818560208601610c54565b6113d581610a3d565b840191505092915050565b6113e9816109c8565b82525050565b6000606082019050818103600083015261140981866113a7565b905061141860208301856113e0565b6114256040830184610e87565b949350505050565b7f456d706c6f79656520646f6573206e6f74206578697374000000000000000000600082015250565b6000611463601783610eb1565b915061146e8261142d565b602082019050919050565b6000602082019050818103600083015261149281611456565b9050919050565b7f4e487b7100000000000000000000000000000000000000000000000000000000600052603260045260246000fdfea26469706673582212203836b12651d4c10a096fe7ddcd5a1294fe04af9451ff96c1567b8772ddfec3a664736f6c63430008120033",
  "linkReferences": {},
  "deployedLinkReferences": {}
}